{"abi":[{"type":"constructor","inputs":[{"name":"_poolManager","type":"address","internalType":"contract IPoolManager"}],"stateMutability":"nonpayable"},{"type":"function","name":"afterAddLiquidity","inputs":[{"name":"sender","type":"address","internalType":"address"},{"name":"key","type":"tuple","internalType":"struct PoolKey","components":[{"name":"currency0","type":"address","internalType":"Currency"},{"name":"currency1","type":"address","internalType":"Currency"},{"name":"fee","type":"uint24","internalType":"uint24"},{"name":"tickSpacing","type":"int24","internalType":"int24"},{"name":"hooks","type":"address","internalType":"contract IHooks"}]},{"name":"params","type":"tuple","internalType":"struct ModifyLiquidityParams","components":[{"name":"tickLower","type":"int24","internalType":"int24"},{"name":"tickUpper","type":"int24","internalType":"int24"},{"name":"liquidityDelta","type":"int256","internalType":"int256"},{"name":"salt","type":"bytes32","internalType":"bytes32"}]},{"name":"delta","type":"int256","internalType":"BalanceDelta"},{"name":"feesAccrued","type":"int256","internalType":"BalanceDelta"},{"name":"hookData","type":"bytes","internalType":"bytes"}],"outputs":[{"name":"","type":"bytes4","internalType":"bytes4"},{"name":"","type":"int256","internalType":"BalanceDelta"}],"stateMutability":"nonpayable"},{"type":"function","name":"afterDonate","inputs":[{"name":"sender","type":"address","internalType":"address"},{"name":"key","type":"tuple","internalType":"struct PoolKey","components":[{"name":"currency0","type":"address","internalType":"Currency"},{"name":"currency1","type":"address","internalType":"Currency"},{"name":"fee","type":"uint24","internalType":"uint24"},{"name":"tickSpacing","type":"int24","internalType":"int24"},{"name":"hooks","type":"address","internalType":"contract IHooks"}]},{"name":"amount0","type":"uint256","internalType":"uint256"},{"name":"amount1","type":"uint256","internalType":"uint256"},{"name":"hookData","type":"bytes","internalType":"bytes"}],"outputs":[{"name":"","type":"bytes4","internalType":"bytes4"}],"stateMutability":"nonpayable"},{"type":"function","name":"afterInitialize","inputs":[{"name":"sender","type":"address","internalType":"address"},{"name":"key","type":"tuple","internalType":"struct PoolKey","components":[{"name":"currency0","type":"address","internalType":"Currency"},{"name":"currency1","type":"address","internalType":"Currency"},{"name":"fee","type":"uint24","internalType":"uint24"},{"name":"tickSpacing","type":"int24","internalType":"int24"},{"name":"hooks","type":"address","internalType":"contract IHooks"}]},{"name":"sqrtPriceX96","type":"uint160","internalType":"uint160"},{"name":"tick","type":"int24","internalType":"int24"}],"outputs":[{"name":"","type":"bytes4","internalType":"bytes4"}],"stateMutability":"nonpayable"},{"type":"function","name":"afterRemoveLiquidity","inputs":[{"name":"sender","type":"address","internalType":"address"},{"name":"key","type":"tuple","internalType":"struct PoolKey","components":[{"name":"currency0","type":"address","internalType":"Currency"},{"name":"currency1","type":"address","internalType":"Currency"},{"name":"fee","type":"uint24","internalType":"uint24"},{"name":"tickSpacing","type":"int24","internalType":"int24"},{"name":"hooks","type":"address","internalType":"contract IHooks"}]},{"name":"params","type":"tuple","internalType":"struct ModifyLiquidityParams","components":[{"name":"tickLower","type":"int24","internalType":"int24"},{"name":"tickUpper","type":"int24","internalType":"int24"},{"name":"liquidityDelta","type":"int256","internalType":"int256"},{"name":"salt","type":"bytes32","internalType":"bytes32"}]},{"name":"delta","type":"int256","internalType":"BalanceDelta"},{"name":"feesAccrued","type":"int256","internalType":"BalanceDelta"},{"name":"hookData","type":"bytes","internalType":"bytes"}],"outputs":[{"name":"","type":"bytes4","internalType":"bytes4"},{"name":"","type":"int256","internalType":"BalanceDelta"}],"stateMutability":"nonpayable"},{"type":"function","name":"afterSwap","inputs":[{"name":"sender","type":"address","internalType":"address"},{"name":"key","type":"tuple","internalType":"struct PoolKey","components":[{"name":"currency0","type":"address","internalType":"Currency"},{"name":"currency1","type":"address","internalType":"Currency"},{"name":"fee","type":"uint24","internalType":"uint24"},{"name":"tickSpacing","type":"int24","internalType":"int24"},{"name":"hooks","type":"address","internalType":"contract IHooks"}]},{"name":"params","type":"tuple","internalType":"struct SwapParams","components":[{"name":"zeroForOne","type":"bool","internalType":"bool"},{"name":"amountSpecified","type":"int256","internalType":"int256"},{"name":"sqrtPriceLimitX96","type":"uint160","internalType":"uint160"}]},{"name":"delta","type":"int256","internalType":"BalanceDelta"},{"name":"hookData","type":"bytes","internalType":"bytes"}],"outputs":[{"name":"","type":"bytes4","internalType":"bytes4"},{"name":"","type":"int128","internalType":"int128"}],"stateMutability":"nonpayable"},{"type":"function","name":"beforeAddLiquidity","inputs":[{"name":"sender","type":"address","internalType":"address"},{"name":"key","type":"tuple","internalType":"struct PoolKey","components":[{"name":"currency0","type":"address","internalType":"Currency"},{"name":"currency1","type":"address","internalType":"Currency"},{"name":"fee","type":"uint24","internalType":"uint24"},{"name":"tickSpacing","type":"int24","internalType":"int24"},{"name":"hooks","type":"address","internalType":"contract IHooks"}]},{"name":"params","type":"tuple","internalType":"struct ModifyLiquidityParams","components":[{"name":"tickLower","type":"int24","internalType":"int24"},{"name":"tickUpper","type":"int24","internalType":"int24"},{"name":"liquidityDelta","type":"int256","internalType":"int256"},{"name":"salt","type":"bytes32","internalType":"bytes32"}]},{"name":"hookData","type":"bytes","internalType":"bytes"}],"outputs":[{"name":"","type":"bytes4","internalType":"bytes4"}],"stateMutability":"nonpayable"},{"type":"function","name":"beforeDonate","inputs":[{"name":"sender","type":"address","internalType":"address"},{"name":"key","type":"tuple","internalType":"struct PoolKey","components":[{"name":"currency0","type":"address","internalType":"Currency"},{"name":"currency1","type":"address","internalType":"Currency"},{"name":"fee","type":"uint24","internalType":"uint24"},{"name":"tickSpacing","type":"int24","internalType":"int24"},{"name":"hooks","type":"address","internalType":"contract IHooks"}]},{"name":"amount0","type":"uint256","internalType":"uint256"},{"name":"amount1","type":"uint256","internalType":"uint256"},{"name":"hookData","type":"bytes","internalType":"bytes"}],"outputs":[{"name":"","type":"bytes4","internalType":"bytes4"}],"stateMutability":"nonpayable"},{"type":"function","name":"beforeInitialize","inputs":[{"name":"sender","type":"address","internalType":"address"},{"name":"key","type":"tuple","internalType":"struct PoolKey","components":[{"name":"currency0","type":"address","internalType":"Currency"},{"name":"currency1","type":"address","internalType":"Currency"},{"name":"fee","type":"uint24","internalType":"uint24"},{"name":"tickSpacing","type":"int24","internalType":"int24"},{"name":"hooks","type":"address","internalType":"contract IHooks"}]},{"name":"sqrtPriceX96","type":"uint160","internalType":"uint160"}],"outputs":[{"name":"","type":"bytes4","internalType":"bytes4"}],"stateMutability":"nonpayable"},{"type":"function","name":"beforeRemoveLiquidity","inputs":[{"name":"sender","type":"address","internalType":"address"},{"name":"key","type":"tuple","internalType":"struct PoolKey","components":[{"name":"currency0","type":"address","internalType":"Currency"},{"name":"currency1","type":"address","internalType":"Currency"},{"name":"fee","type":"uint24","internalType":"uint24"},{"name":"tickSpacing","type":"int24","internalType":"int24"},{"name":"hooks","type":"address","internalType":"contract IHooks"}]},{"name":"params","type":"tuple","internalType":"struct ModifyLiquidityParams","components":[{"name":"tickLower","type":"int24","internalType":"int24"},{"name":"tickUpper","type":"int24","internalType":"int24"},{"name":"liquidityDelta","type":"int256","internalType":"int256"},{"name":"salt","type":"bytes32","internalType":"bytes32"}]},{"name":"hookData","type":"bytes","internalType":"bytes"}],"outputs":[{"name":"","type":"bytes4","internalType":"bytes4"}],"stateMutability":"nonpayable"},{"type":"function","name":"beforeSwap","inputs":[{"name":"sender","type":"address","internalType":"address"},{"name":"key","type":"tuple","internalType":"struct PoolKey","components":[{"name":"currency0","type":"address","internalType":"Currency"},{"name":"currency1","type":"address","internalType":"Currency"},{"name":"fee","type":"uint24","internalType":"uint24"},{"name":"tickSpacing","type":"int24","internalType":"int24"},{"name":"hooks","type":"address","internalType":"contract IHooks"}]},{"name":"params","type":"tuple","internalType":"struct SwapParams","components":[{"name":"zeroForOne","type":"bool","internalType":"bool"},{"name":"amountSpecified","type":"int256","internalType":"int256"},{"name":"sqrtPriceLimitX96","type":"uint160","internalType":"uint160"}]},{"name":"hookData","type":"bytes","internalType":"bytes"}],"outputs":[{"name":"","type":"bytes4","internalType":"bytes4"},{"name":"","type":"int256","internalType":"BeforeSwapDelta"},{"name":"","type":"uint24","internalType":"uint24"}],"stateMutability":"nonpayable"},{"type":"function","name":"getHookPermissions","inputs":[],"outputs":[{"name":"","type":"tuple","internalType":"struct Hooks.Permissions","components":[{"name":"beforeInitialize","type":"bool","internalType":"bool"},{"name":"afterInitialize","type":"bool","internalType":"bool"},{"name":"beforeAddLiquidity","type":"bool","internalType":"bool"},{"name":"afterAddLiquidity","type":"bool","internalType":"bool"},{"name":"beforeRemoveLiquidity","type":"bool","internalType":"bool"},{"name":"afterRemoveLiquidity","type":"bool","internalType":"bool"},{"name":"beforeSwap","type":"bool","internalType":"bool"},{"name":"afterSwap","type":"bool","internalType":"bool"},{"name":"beforeDonate","type":"bool","internalType":"bool"},{"name":"afterDonate","type":"bool","internalType":"bool"},{"name":"beforeSwapReturnDelta","type":"bool","internalType":"bool"},{"name":"afterSwapReturnDelta","type":"bool","internalType":"bool"},{"name":"afterAddLiquidityReturnDelta","type":"bool","internalType":"bool"},{"name":"afterRemoveLiquidityReturnDelta","type":"bool","internalType":"bool"}]}],"stateMutability":"pure"},{"type":"function","name":"owner","inputs":[],"outputs":[{"name":"","type":"address","internalType":"address"}],"stateMutability":"view"},{"type":"function","name":"poolManager","inputs":[],"outputs":[{"name":"","type":"address","internalType":"contract IPoolManager"}],"stateMutability":"view"},{"type":"function","name":"restrictToken","inputs":[],"outputs":[{"name":"","type":"bool","internalType":"bool"}],"stateMutability":"view"},{"type":"function","name":"setRestrictToken","inputs":[{"name":"_restrictToken","type":"bool","internalType":"bool"}],"outputs":[],"stateMutability":"nonpayable"},{"type":"function","name":"setWhitelist","inputs":[{"name":"addr","type":"address","internalType":"address"},{"name":"allowed","type":"bool","internalType":"bool"}],"outputs":[],"stateMutability":"nonpayable"},{"type":"function","name":"whitelist","inputs":[{"name":"","type":"address","internalType":"address"}],"outputs":[{"name":"","type":"bool","internalType":"bool"}],"stateMutability":"view"},{"type":"error","name":"HookNotImplemented","inputs":[]},{"type":"error","name":"NotPoolManager","inputs":[]}],"bytecode":{"object":"0x60a060405260015f60146101000a81548160ff0219169083151502179055503480156200002a575f80fd5b50604051620022463803806200224683398181016040528101906200005091906200070c565b80808073ffffffffffffffffffffffffffffffffffffffff1660808173ffffffffffffffffffffffffffffffffffffffff16815250505062000098306200016760201b60201c565b5073679328c67c83dda3741d0222d6d4a9f4a3a36e855f806101000a81548173ffffffffffffffffffffffffffffffffffffffff021916908373ffffffffffffffffffffffffffffffffffffffff1602179055506001805f805f9054906101000a900473ffffffffffffffffffffffffffffffffffffffff1673ffffffffffffffffffffffffffffffffffffffff1673ffffffffffffffffffffffffffffffffffffffff1681526020019081526020015f205f6101000a81548160ff021916908315150217905550506200073c565b62000188816200017c6200018b60201b60201c565b6200021560201b60201c565b50565b6200019562000617565b604051806101c001604052805f151581526020015f151581526020015f151581526020015f151581526020015f151581526020015f151581526020016001151581526020015f151581526020015f151581526020015f151581526020015f151581526020015f151581526020015f151581526020015f1515815250905090565b620002426120008373ffffffffffffffffffffffffffffffffffffffff16620005d060201b90919060201c565b1515815f015115151415806200028c5750620002806110008373ffffffffffffffffffffffffffffffffffffffff16620005d060201b90919060201c565b15158160200151151514155b80620002cc5750620002c06108008373ffffffffffffffffffffffffffffffffffffffff16620005d060201b90919060201c565b15158160400151151514155b806200030c5750620003006104008373ffffffffffffffffffffffffffffffffffffffff16620005d060201b90919060201c565b15158160600151151514155b806200034c5750620003406102008373ffffffffffffffffffffffffffffffffffffffff16620005d060201b90919060201c565b15158160800151151514155b806200038c5750620003806101008373ffffffffffffffffffffffffffffffffffffffff16620005d060201b90919060201c565b15158160a00151151514155b80620003cb5750620003bf60808373ffffffffffffffffffffffffffffffffffffffff16620005d060201b90919060201c565b15158160c00151151514155b806200040a5750620003fe60408373ffffffffffffffffffffffffffffffffffffffff16620005d060201b90919060201c565b15158160e00151151514155b806200044a57506200043d60208373ffffffffffffffffffffffffffffffffffffffff16620005d060201b90919060201c565b1515816101000151151514155b806200048a57506200047d60108373ffffffffffffffffffffffffffffffffffffffff16620005d060201b90919060201c565b1515816101200151151514155b80620004ca5750620004bd60088373ffffffffffffffffffffffffffffffffffffffff16620005d060201b90919060201c565b1515816101400151151514155b806200050a5750620004fd60048373ffffffffffffffffffffffffffffffffffffffff16620005d060201b90919060201c565b1515816101600151151514155b806200054a57506200053d60028373ffffffffffffffffffffffffffffffffffffffff16620005d060201b90919060201c565b1515816101800151151514155b806200058a57506200057d60018373ffffffffffffffffffffffffffffffffffffffff16620005d060201b90919060201c565b1515816101a00151151514155b15620005cc57620005cb8263e65af6a060e01b7bffffffffffffffffffffffffffffffffffffffffffffffffffffffff1916620005f560201b90919060201c565b5b5050565b5f8082841673ffffffffffffffffffffffffffffffffffffffff161415905092915050565b815f5273ffffffffffffffffffffffffffffffffffffffff811660045260245ffd5b604051806101c001604052805f151581526020015f151581526020015f151581526020015f151581526020015f151581526020015f151581526020015f151581526020015f151581526020015f151581526020015f151581526020015f151581526020015f151581526020015f151581526020015f151581525090565b5f80fd5b5f73ffffffffffffffffffffffffffffffffffffffff82169050919050565b5f620006c38262000698565b9050919050565b5f620006d682620006b7565b9050919050565b620006e881620006ca565b8114620006f3575f80fd5b50565b5f815190506200070681620006dd565b92915050565b5f6020828403121562000724576200072362000694565b5b5f6200073384828501620006f6565b91505092915050565b608051611aab6200079b5f395f81816103d501528181610473015281816105f801528181610746015281816107eb015281816108c80152818161098001528181610a2301528181610b4a01528181610b6f0152610c090152611aab5ff3fe608060405234801561000f575f80fd5b5060043610610109575f3560e01c80639b19251a116100a0578063b6a8b0fa1161006f578063b6a8b0fa14610306578063c4e833ce14610336578063dc4c90d314610354578063dc98354e14610372578063e1b4af69146103a257610109565b80639b19251a146102565780639f063efc14610286578063a31d9c0a146102b7578063b47b2fb1146102d557610109565b806361f22973116100dc57806361f22973146101bb5780636c2bbe7e146101d75780636fe7e6eb146102085780638da5cb5b1461023857610109565b806321d0ee701461010d578063259982e51461013d57806353d6fd591461016d578063575e24b414610189575b5f80fd5b610127600480360381019061012291906110ca565b6103d2565b604051610134919061118a565b60405180910390f35b610157600480360381019061015291906110ca565b610470565b604051610164919061118a565b60405180910390f35b610187600480360381019061018291906111d8565b61050e565b005b6101a3600480360381019061019e9190611234565b6105f3565b6040516101b293929190611319565b60405180910390f35b6101d560048036038101906101d0919061134e565b610699565b005b6101f160048036038101906101ec91906113a3565b610742565b6040516101ff929190611460565b60405180910390f35b610222600480360381019061021d91906114e7565b6107e8565b60405161022f919061118a565b60405180910390f35b610240610884565b60405161024d919061155b565b60405180910390f35b610270600480360381019061026b9190611574565b6108a7565b60405161027d91906115ae565b60405180910390f35b6102a0600480360381019061029b91906113a3565b6108c4565b6040516102ae929190611460565b60405180910390f35b6102bf61096a565b6040516102cc91906115ae565b60405180910390f35b6102ef60048036038101906102ea91906115c7565b61097c565b6040516102fd92919061167b565b60405180910390f35b610320600480360381019061031b91906116d5565b610a20565b60405161032d919061118a565b60405180910390f35b61033e610ac0565b60405161034b919061189a565b60405180910390f35b61035c610b48565b6040516103699190611906565b60405180910390f35b61038c6004803603810190610387919061191f565b610b6c565b604051610399919061118a565b60405180910390f35b6103bc60048036038101906103b791906116d5565b610c06565b6040516103c9919061118a565b60405180910390f35b5f7f000000000000000000000000000000000000000000000000000000000000000073ffffffffffffffffffffffffffffffffffffffff163373ffffffffffffffffffffffffffffffffffffffff1614610458576040517fae18210a00000000000000000000000000000000000000000000000000000000815260040160405180910390fd5b6104658686868686610ca6565b905095945050505050565b5f7f000000000000000000000000000000000000000000000000000000000000000073ffffffffffffffffffffffffffffffffffffffff163373ffffffffffffffffffffffffffffffffffffffff16146104f6576040517fae18210a00000000000000000000000000000000000000000000000000000000815260040160405180910390fd5b6105038686868686610cd9565b905095945050505050565b5f8054906101000a900473ffffffffffffffffffffffffffffffffffffffff1673ffffffffffffffffffffffffffffffffffffffff163373ffffffffffffffffffffffffffffffffffffffff161461059b576040517f08c379a0000000000000000000000000000000000000000000000000000000008152600401610592906119c9565b60405180910390fd5b8060015f8473ffffffffffffffffffffffffffffffffffffffff1673ffffffffffffffffffffffffffffffffffffffff1681526020019081526020015f205f6101000a81548160ff0219169083151502179055505050565b5f805f7f000000000000000000000000000000000000000000000000000000000000000073ffffffffffffffffffffffffffffffffffffffff163373ffffffffffffffffffffffffffffffffffffffff161461067b576040517fae18210a00000000000000000000000000000000000000000000000000000000815260040160405180910390fd5b6106888888888888610d0c565b925092509250955095509592505050565b5f8054906101000a900473ffffffffffffffffffffffffffffffffffffffff1673ffffffffffffffffffffffffffffffffffffffff163373ffffffffffffffffffffffffffffffffffffffff1614610726576040517f08c379a000000000000000000000000000000000000000000000000000000000815260040161071d906119c9565b60405180910390fd5b805f60146101000a81548160ff02191690831515021790555050565b5f807f000000000000000000000000000000000000000000000000000000000000000073ffffffffffffffffffffffffffffffffffffffff163373ffffffffffffffffffffffffffffffffffffffff16146107c9576040517fae18210a00000000000000000000000000000000000000000000000000000000815260040160405180910390fd5b6107d889898989898989610de2565b9150915097509795505050505050565b5f7f000000000000000000000000000000000000000000000000000000000000000073ffffffffffffffffffffffffffffffffffffffff163373ffffffffffffffffffffffffffffffffffffffff161461086e576040517fae18210a00000000000000000000000000000000000000000000000000000000815260040160405180910390fd5b61087a85858585610e16565b9050949350505050565b5f8054906101000a900473ffffffffffffffffffffffffffffffffffffffff1681565b6001602052805f5260405f205f915054906101000a900460ff1681565b5f807f000000000000000000000000000000000000000000000000000000000000000073ffffffffffffffffffffffffffffffffffffffff163373ffffffffffffffffffffffffffffffffffffffff161461094b576040517fae18210a00000000000000000000000000000000000000000000000000000000815260040160405180910390fd5b61095a89898989898989610e49565b9150915097509795505050505050565b5f60149054906101000a900460ff1681565b5f807f000000000000000000000000000000000000000000000000000000000000000073ffffffffffffffffffffffffffffffffffffffff163373ffffffffffffffffffffffffffffffffffffffff1614610a03576040517fae18210a00000000000000000000000000000000000000000000000000000000815260040160405180910390fd5b610a11888888888888610e7d565b91509150965096945050505050565b5f7f000000000000000000000000000000000000000000000000000000000000000073ffffffffffffffffffffffffffffffffffffffff163373ffffffffffffffffffffffffffffffffffffffff1614610aa6576040517fae18210a00000000000000000000000000000000000000000000000000000000815260040160405180910390fd5b610ab4878787878787610eb1565b90509695505050505050565b610ac8610f4a565b604051806101c001604052805f151581526020015f151581526020015f151581526020015f151581526020015f151581526020015f151581526020016001151581526020015f151581526020015f151581526020015f151581526020015f151581526020015f151581526020015f151581526020015f1515815250905090565b7f000000000000000000000000000000000000000000000000000000000000000081565b5f7f000000000000000000000000000000000000000000000000000000000000000073ffffffffffffffffffffffffffffffffffffffff163373ffffffffffffffffffffffffffffffffffffffff1614610bf2576040517fae18210a00000000000000000000000000000000000000000000000000000000815260040160405180910390fd5b610bfd848484610ee4565b90509392505050565b5f7f000000000000000000000000000000000000000000000000000000000000000073ffffffffffffffffffffffffffffffffffffffff163373ffffffffffffffffffffffffffffffffffffffff1614610c8c576040517fae18210a00000000000000000000000000000000000000000000000000000000815260040160405180910390fd5b610c9a878787878787610f17565b90509695505050505050565b5f6040517f0a85dc2900000000000000000000000000000000000000000000000000000000815260040160405180910390fd5b5f6040517f0a85dc2900000000000000000000000000000000000000000000000000000000815260040160405180910390fd5b5f805f8060149054906101000a900460ff168015610d385750855f016020810190610d37919061134e565b5b15610dc75760015f8973ffffffffffffffffffffffffffffffffffffffff1673ffffffffffffffffffffffffffffffffffffffff1681526020019081526020015f205f9054906101000a900460ff16610dc6576040517f08c379a0000000000000000000000000000000000000000000000000000000008152600401610dbd90611a57565b60405180910390fd5b5b63575e24b460e01b5f80925092509250955095509592505050565b5f806040517f0a85dc2900000000000000000000000000000000000000000000000000000000815260040160405180910390fd5b5f6040517f0a85dc2900000000000000000000000000000000000000000000000000000000815260040160405180910390fd5b5f806040517f0a85dc2900000000000000000000000000000000000000000000000000000000815260040160405180910390fd5b5f806040517f0a85dc2900000000000000000000000000000000000000000000000000000000815260040160405180910390fd5b5f6040517f0a85dc2900000000000000000000000000000000000000000000000000000000815260040160405180910390fd5b5f6040517f0a85dc2900000000000000000000000000000000000000000000000000000000815260040160405180910390fd5b5f6040517f0a85dc2900000000000000000000000000000000000000000000000000000000815260040160405180910390fd5b604051806101c001604052805f151581526020015f151581526020015f151581526020015f151581526020015f151581526020015f151581526020015f151581526020015f151581526020015f151581526020015f151581526020015f151581526020015f151581526020015f151581526020015f151581525090565b5f80fd5b5f80fd5b5f73ffffffffffffffffffffffffffffffffffffffff82169050919050565b5f610ff882610fcf565b9050919050565b61100881610fee565b8114611012575f80fd5b50565b5f8135905061102381610fff565b92915050565b5f80fd5b5f60a0828403121561104257611041611029565b5b81905092915050565b5f608082840312156110605761105f611029565b5b81905092915050565b5f80fd5b5f80fd5b5f80fd5b5f8083601f84011261108a57611089611069565b5b8235905067ffffffffffffffff8111156110a7576110a661106d565b5b6020830191508360018202830111156110c3576110c2611071565b5b9250929050565b5f805f805f61016086880312156110e4576110e3610fc7565b5b5f6110f188828901611015565b95505060206111028882890161102d565b94505060c06111138882890161104b565b93505061014086013567ffffffffffffffff81111561113557611134610fcb565b5b61114188828901611075565b92509250509295509295909350565b5f7fffffffff0000000000000000000000000000000000000000000000000000000082169050919050565b61118481611150565b82525050565b5f60208201905061119d5f83018461117b565b92915050565b5f8115159050919050565b6111b7816111a3565b81146111c1575f80fd5b50565b5f813590506111d2816111ae565b92915050565b5f80604083850312156111ee576111ed610fc7565b5b5f6111fb85828601611015565b925050602061120c858286016111c4565b9150509250929050565b5f6060828403121561122b5761122a611029565b5b81905092915050565b5f805f805f610140868803121561124e5761124d610fc7565b5b5f61125b88828901611015565b955050602061126c8882890161102d565b94505060c061127d88828901611216565b93505061012086013567ffffffffffffffff81111561129f5761129e610fcb565b5b6112ab88828901611075565b92509250509295509295909350565b5f819050919050565b5f819050919050565b5f6112e66112e16112dc846112ba565b6112c3565b6112ba565b9050919050565b6112f6816112cc565b82525050565b5f62ffffff82169050919050565b611313816112fc565b82525050565b5f60608201905061132c5f83018661117b565b61133960208301856112ed565b611346604083018461130a565b949350505050565b5f6020828403121561136357611362610fc7565b5b5f611370848285016111c4565b91505092915050565b611382816112ba565b811461138c575f80fd5b50565b5f8135905061139d81611379565b92915050565b5f805f805f805f6101a0888a0312156113bf576113be610fc7565b5b5f6113cc8a828b01611015565b97505060206113dd8a828b0161102d565b96505060c06113ee8a828b0161104b565b9550506101406114008a828b0161138f565b9450506101606114128a828b0161138f565b93505061018088013567ffffffffffffffff81111561143457611433610fcb565b5b6114408a828b01611075565b925092505092959891949750929550565b61145a816112cc565b82525050565b5f6040820190506114735f83018561117b565b6114806020830184611451565b9392505050565b61149081610fcf565b811461149a575f80fd5b50565b5f813590506114ab81611487565b92915050565b5f8160020b9050919050565b6114c6816114b1565b81146114d0575f80fd5b50565b5f813590506114e1816114bd565b92915050565b5f805f806101008587031215611500576114ff610fc7565b5b5f61150d87828801611015565b945050602061151e8782880161102d565b93505060c061152f8782880161149d565b92505060e0611540878288016114d3565b91505092959194509250565b61155581610fee565b82525050565b5f60208201905061156e5f83018461154c565b92915050565b5f6020828403121561158957611588610fc7565b5b5f61159684828501611015565b91505092915050565b6115a8816111a3565b82525050565b5f6020820190506115c15f83018461159f565b92915050565b5f805f805f8061016087890312156115e2576115e1610fc7565b5b5f6115ef89828a01611015565b965050602061160089828a0161102d565b95505060c061161189828a01611216565b94505061012061162389828a0161138f565b93505061014087013567ffffffffffffffff81111561164557611644610fcb565b5b61165189828a01611075565b92509250509295509295509295565b5f81600f0b9050919050565b61167581611660565b82525050565b5f60408201905061168e5f83018561117b565b61169b602083018461166c565b9392505050565b5f819050919050565b6116b4816116a2565b81146116be575f80fd5b50565b5f813590506116cf816116ab565b92915050565b5f805f805f8061012087890312156116f0576116ef610fc7565b5b5f6116fd89828a01611015565b965050602061170e89828a0161102d565b95505060c061171f89828a016116c1565b94505060e061173089828a016116c1565b93505061010087013567ffffffffffffffff81111561175257611751610fcb565b5b61175e89828a01611075565b92509250509295509295509295565b611776816111a3565b82525050565b6101c082015f8201516117915f85018261176d565b5060208201516117a4602085018261176d565b5060408201516117b7604085018261176d565b5060608201516117ca606085018261176d565b5060808201516117dd608085018261176d565b5060a08201516117f060a085018261176d565b5060c082015161180360c085018261176d565b5060e082015161181660e085018261176d565b5061010082015161182b61010085018261176d565b5061012082015161184061012085018261176d565b5061014082015161185561014085018261176d565b5061016082015161186a61016085018261176d565b5061018082015161187f61018085018261176d565b506101a08201516118946101a085018261176d565b50505050565b5f6101c0820190506118ae5f83018461177c565b92915050565b5f6118ce6118c96118c484610fcf565b6112c3565b610fcf565b9050919050565b5f6118df826118b4565b9050919050565b5f6118f0826118d5565b9050919050565b611900816118e6565b82525050565b5f6020820190506119195f8301846118f7565b92915050565b5f805f60e0848603121561193657611935610fc7565b5b5f61194386828701611015565b93505060206119548682870161102d565b92505060c06119658682870161149d565b9150509250925092565b5f82825260208201905092915050565b7f216f776e657200000000000000000000000000000000000000000000000000005f82015250565b5f6119b360068361196f565b91506119be8261197f565b602082019050919050565b5f6020820190508181035f8301526119e0816119a7565b9050919050565b7f4e6f742077686974656c697374656420666f7220627579696e6720546f6b656e5f8201527f3100000000000000000000000000000000000000000000000000000000000000602082015250565b5f611a4160218361196f565b9150611a4c826119e7565b604082019050919050565b5f6020820190508181035f830152611a6e81611a35565b905091905056fea2646970667358221220ab0212618b21d019ec5a9c176c5db174de96964a209ab64623c77bb4ba0c1dc564736f6c63430008180033","linkReferences":{}},"methodIdentifiers":{"afterAddLiquidity(address,(address,address,uint24,int24,address),(int24,int24,int256,bytes32),int256,int256,bytes)":"9f063efc","afterDonate(address,(address,address,uint24,int24,address),uint256,uint256,bytes)":"e1b4af69","afterInitialize(address,(address,address,uint24,int24,address),uint160,int24)":"6fe7e6eb","afterRemoveLiquidity(address,(address,address,uint24,int24,address),(int24,int24,int256,bytes32),int256,int256,bytes)":"6c2bbe7e","afterSwap(address,(address,address,uint24,int24,address),(bool,int256,uint160),int256,bytes)":"b47b2fb1","beforeAddLiquidity(address,(address,address,uint24,int24,address),(int24,int24,int256,bytes32),bytes)":"259982e5","beforeDonate(address,(address,address,uint24,int24,address),uint256,uint256,bytes)":"b6a8b0fa","beforeInitialize(address,(address,address,uint24,int24,address),uint160)":"dc98354e","beforeRemoveLiquidity(address,(address,address,uint24,int24,address),(int24,int24,int256,bytes32),bytes)":"21d0ee70","beforeSwap(address,(address,address,uint24,int24,address),(bool,int256,uint160),bytes)":"575e24b4","getHookPermissions()":"c4e833ce","owner()":"8da5cb5b","poolManager()":"dc4c90d3","restrictToken()":"a31d9c0a","setRestrictToken(bool)":"61f22973","setWhitelist(address,bool)":"53d6fd59","whitelist(address)":"9b19251a"},"id":38}